:100000000C945D000C9485000C9485000C94850084
:100010000C9485000C9485000C9485000C9485004C
:100020000C9485000C9485000C9485000C9485003C
:100030000C9485000C9485000C9485000C9485002C
:100040000C944D020C9485000C94BD020C94970204
:100050000C9485000C9485000C9485000C9485000C
:100060000C9485000C94850000000008000201003B
:100070000003040700000000000000000000000072
:10008000250028002B0000000000240027002A0083
:10009000040404040404040402020202020203032E
:1000A0000303030301020408102040800102040836
:1000B00010200102040810201E0411241FBECFEFDF
:1000C000D8E0DEBFCDBF11E0A0E0B1E0ECE8FCE09D
:1000D00002C005900D92A631B107D9F721E0A6E143
:1000E000B1E001C01D92AE3BB207E1F710E0CDE5F3
:1000F000D0E004C02197FE010E946D04CC35D107E9
:10010000C9F70E94EF020C9444060C94000090E0A2
:10011000FC01EC55FF4F249180579F4FFC018491C7
:10012000882399F090E0880F991FFC01EA57FF4F50
:10013000A591B491FC01E458FF4F859194918FB73C
:10014000F894EC91E22BEC938FBF089590E0FC01C2
:10015000E859FF4F2491FC01EC55FF4F3491FC010D
:10016000E057FF4FE491EE23C9F0222339F023300A
:1001700001F1A8F4213019F1223029F1F0E0EE0F5D
:10018000FF1FE458FF4FA591B4918FB7F894EC91FD
:10019000611126C030953E233C938FBF08952730D0
:1001A000A9F02830C9F0243049F7809180008F7D74
:1001B00003C0809180008F7780938000DFCF84B56B
:1001C0008F7784BDDBCF84B58F7DFBCF8091B0006E
:1001D0008F778093B000D2CF8091B0008F7DF9CF20
:1001E0003E2BDACFAF92BF92CF92DF92EF92FF9287
:1001F0000F931F93CF93DF936C017B018B01040F4F
:10020000151FEB015E01AE18BF08C017D10759F0EA
:100210006991D601ED91FC910190F081E02DC6012C
:100220000995892B79F7C501DF91CF911F910F9126
:10023000FF90EF90DF90CF90BF90AF900895FC01BA
:10024000538D448D252F30E0842F90E0821B930B3B
:10025000541710F0CF96089501970895FC01918DE1
:10026000828D981761F0A28DAE0FBF2FB11D5D96E4
:100270008C91928D9F5F9F73928F90E008958FEF86
:100280009FEF0895FC01918D828D981731F0828D3A
:10029000E80FF11D858D90E008958FEF9FEF089591
:1002A000FC01918D228D892F90E0805C9F4F821BF5
:1002B00091098F739927089581E291E00E9450017E
:1002C00021E0892B09F420E0822F089580E090E05E
:1002D000892B29F00E945C0181110C940000089583
:1002E000FC01A48DA80FB92FB11DA35ABF4F2C91AB
:1002F000848D90E001968F739927848FA689B789A2
:100300002C93A089B1898C91837080648C93938D98
:10031000848D981306C00288F389E02D80818F7D3B
:1003200080830895EF92FF920F931F93CF93DF93F3
:10033000EC0181E0888F9B8D8C8D98131AC0E88921
:10034000F989808185FF15C09FB7F894EE89FF89F0
:100350006083E889F98980818370806480839FBF8E
:1003600081E090E0DF91CF911F910F91FF90EF908E
:100370000895F62E0B8D10E00F5F1F4F0F7311279E
:10038000E02E8C8D8E110CC00FB607FCFACFE889D9
:10039000F989808185FFF5CFCE010E947001F1CFF0
:1003A000EB8DEC0FFD2FF11DE35AFF4FF0829FB74D
:1003B000F8940B8FEA89FB8980818062CFCFCF933D
:1003C000DF93EC01888D8823B9F0AA89BB89E8897D
:1003D000F9898C9185FD03C0808186FD0DC00FB623
:1003E00007FCF7CF8C9185FFF2CF808185FFEDCFA1
:1003F000CE010E947001E9CFDF91CF9108958F92D5
:100400009F92AF92BF920F931F93CF93DF93CDB77D
:10041000DEB7A1970FB6F894DEBF0FBECDBF19A20D
:10042000423008F44AE08E010F5D1F4F842E912C5C
:10043000B12CA12CA50194010E944B04E62FB90117
:10044000CA01EA3044F5E05DD801EE938D01232B1B
:10045000242B252B79F790E080E0109769F0FD01BF
:1004600001900020E9F73197AF014A1B5B0BBD01FA
:1004700081E291E00E94F200A1960FB6F894DEBFEF
:100480000FBECDBFDF91CF911F910F91BF90AF9065
:100490009F908F900895E95CD7CF1F920F920FB66F
:1004A0000F9211242F933F938F939F93AF93BF93FA
:1004B00080911D0190911E01A0911F01B09120011A
:1004C00030911C0123E0230F2D3758F50196A11D13
:1004D000B11D20931C0180931D0190931E01A093D8
:1004E0001F01B09320018091180190911901A091F2
:1004F0001A01B0911B010196A11DB11D8093180135
:1005000090931901A0931A01B0931B01BF91AF9171
:100510009F918F913F912F910F900FBE0F901F9041
:10052000189526E8230F0296A11DB11DD2CF1F9268
:100530000F920FB60F9211242F933F934F935F9317
:100540006F937F938F939F93AF93BF93EF93FF939B
:1005500081E291E00E947001FF91EF91BF91AF9114
:100560009F918F917F916F915F914F913F912F91CB
:100570000F900FBE0F901F9018951F920F920FB6FD
:100580000F9211242F938F939F93EF93FF93E091FA
:100590003101F09132018081E0913701F091380111
:1005A00082FD1BC0908180913A018F5F8F732091F3
:1005B0003B01821741F0E0913A01F0E0EF5DFE4F20
:1005C000958F80933A01FF91EF919F918F912F9199
:1005D0000F900FBE0F901F9018958081F4CF7894E4
:1005E00084B5826084BD84B5816084BD85B5826038
:1005F00085BD85B5816085BD80916E0081608093E9
:100600006E00109281008091810082608093810051
:100610008091810081608093810080918000816061
:10062000809380008091B10084608093B1008091BC
:10063000B00081608093B00080917A0084608093E4
:100640007A0080917A00826080937A0080917A00AB
:10065000816080937A0080917A00806880937A002C
:100660001092C100E0913101F091320182E080836B
:10067000E0912D01F0912E011082E0912F01F09177
:1006800030018FEC808310923901E0913501F091B7
:10069000360186E08083E0913301F091340180815E
:1006A00080618083E0913301F09134018081886022
:1006B0008083E0913301F0913401808180688083F0
:1006C000E0913301F091340180818F7D80838DE052
:1006D0000E94870060E08DE00E94A60082E00E94F8
:1006E000870060E082E00E94A60088E00E94870008
:1006F00060E088E00E94A6008CE00E94870060E035
:100700008CE00E94A60015E4C0E0D0E010937C00CD
:1007100080917A00806480937A0080917A0086FDCF
:10072000FCCF8091780060917900762F682F072E9A
:10073000000C880B990B0E94220520E030E04FE26C
:1007400054E40E94780420E030E048EC52E40E9437
:10075000D7050E94EA0470931701609316016B019C
:10076000770FEE08FF084AE0C701B601F7FE0DC09B
:100770006DE281E291E00E94920166277727CB012A
:100780006C197D098E099F094AE00E94FF0142E031
:1007900050E062E171E081E291E00E94F20060913C
:1007A000160170911701072E000C880B990B0E94FF
:1007B00022056B017C0120E030E040EA52E40E9417
:1007C000D20587FD17C061E08CE00E94A60060E0C2
:1007D00088E00E94A60060E082E00E94A6002097C8
:1007E00009F494CF0E945C01882309F48FCF0E9402
:1007F00000008CCF20E030E040EF51E4C701B601AB
:100800000E94D20587FD10C020E030E040EA52E4AB
:10081000C701B6010E94730487FF06C060E08CE048
:100820000E94A60061E0D4CF60E08CE00E94A600A8
:1008300060E088E00E94A60061E0CECFE1E2F1E056
:100840001382128288EE93E0A0E0B0E08483958367
:10085000A683B78384E091E09183808385EC90E068
:100860009587848784EC90E09787868780EC90E07A
:10087000918B808B81EC90E0938B828B82EC90E06B
:10088000958B848B86EC90E0978B868B118E128EE5
:10089000138E148E0895A1E21A2EAA1BBB1BFD0114
:1008A0000DC0AA1FBB1FEE1FFF1FA217B307E4074F
:1008B000F50720F0A21BB30BE40BF50B661F771FA7
:1008C000881F991F1A9469F7609570958095909587
:1008D0009B01AC01BD01CF010895EE0FFF1F0590F4
:1008E000F491E02D09940E945D0508F481E00895DB
:1008F0000E948C040C9498050E94910558F00E9467
:100900008A0540F029F45F3F29F00C9481055111CC
:100910000C94CC050C9487050E94A90568F39923D3
:10092000B1F3552391F3951B550BBB27AA276217EB
:100930007307840738F09F5F5F4F220F331F441FF8
:10094000AA1FA9F335D00E2E3AF0E0E832D091502C
:100950005040E695001CCAF72BD0FE2F29D0660F19
:10096000771F881FBB1F261737074807AB07B0E85C
:1009700009F0BB0B802DBF01FF2793585F4F3AF062
:100980009E3F510578F00C9481050C94CC055F3F97
:10099000E4F3983ED4F3869577956795B795F795E8
:1009A0009F5FC9F7880F911D9695879597F90895D0
:1009B000E1E0660F771F881FBB1F6217730784076C
:1009C000BA0720F0621B730B840BBA0BEE1F88F77B
:1009D000E09508950E94F1046894B1110C94CC053F
:1009E00008950E94B10588F09F5798F0B92F992774
:1009F000B751B0F0E1F0660F771F881F991F1AF00A
:100A0000BA95C9F714C0B13091F00E94CB05B1E09E
:100A100008950C94CB05672F782F8827B85F39F09D
:100A2000B93FCCF3869577956795B395D9F73EF4A2
:100A300090958095709561957F4F8F4F9F4F08954A
:100A4000E89409C097FB3EF4909580957095619568
:100A50007F4F8F4F9F4F9923A9F0F92F96E9BB271E
:100A60009395F695879577956795B795F111F8CF9A
:100A7000FAF4BB0F11F460FF1BC06F5F7F4F8F4F05
:100A80009F4F16C0882311F096E911C0772321F0FB
:100A90009EE8872F762F05C0662371F096E8862F93
:100AA00070E060E02AF09A95660F771F881FDAF7EA
:100AB000880F9695879597F90895990F0008550F17
:100AC000AA0BE0E8FEEF16161706E807F907C0F0D4
:100AD00012161306E407F50798F0621B730B840BDC
:100AE000950B39F40A2661F0232B242B252B21F4B6
:100AF00008950A2609F4A140A6958FEF811D811D56
:100B0000089597F99F6780E870E060E008959FEF8F
:100B100080EC089500240A94161617061806090694
:100B2000089500240A941216130614060506089563
:100B3000092E0394000C11F4882352F0BB0F40F4EB
:100B4000BF2B11F460FF04C06F5F7F4F8F4F9F4F2B
:100B5000089557FD9058440F551F59F05F3F71F0AD
:100B60004795880F97FB991F61F09F3F79F0879514
:100B70000895121613061406551FF2CF4695F1DF9D
:100B800008C0161617061806991FF1CF869571052D
:100B9000610508940895E894BB2766277727CB0161
:100BA00097F908950E945D0508F48FEF08950E945B
:100BB000EA050C9498050E948A0538F00E94910578
:100BC00020F0952311F00C9481050C9487051124D5
:100BD0000C94CC050E94A90570F3959FC1F3950F65
:100BE00050E0551F629FF001729FBB27F00DB11DB1
:100BF000639FAA27F00DB11DAA1F649F6627B00D41
:100C0000A11D661F829F2227B00DA11D621F739F29
:100C1000B00DA11D621F839FA00D611D221F749F37
:100C20003327A00D611D231F849F600D211D822F7E
:100C3000762F6A2F11249F5750409AF0F1F08823A5
:100C40004AF0EE0FFF1FBB1F661F771F881F9150D2
:100C50005040A9F79E3F510580F00C9481050C94FB
:100C6000CC055F3FE4F3983ED4F38695779567957E
:100C7000B795F795E7959F5FC1F7FE2B880F911DFC
:0C0C80009695879597F90895F894FFCF9A
:100C8C00000000009201F2001F01DF0150012E0153
:060C9C0042010D0A0000F8
:00000001FF
